{
  "contractName": "TeslaFactory",
  "abi": [
    {
      "anonymous": false,
      "inputs": [
        {
          "indexed": false,
          "internalType": "address",
          "name": "owner",
          "type": "address"
        }
      ],
      "name": "NewTeslaCreated",
      "type": "event"
    },
    {
      "inputs": [
        {
          "internalType": "uint256",
          "name": "",
          "type": "uint256"
        }
      ],
      "name": "deployedTeslas",
      "outputs": [
        {
          "internalType": "contract Tesla",
          "name": "",
          "type": "address"
        }
      ],
      "stateMutability": "view",
      "type": "function",
      "constant": true
    },
    {
      "inputs": [],
      "name": "createNewTesla",
      "outputs": [],
      "stateMutability": "nonpayable",
      "type": "function"
    }
  ],
  "bytecode": "0x608060405234801561001057600080fd5b50610517806100206000396000f3fe608060405234801561001057600080fd5b50600436106100365760003560e01c80634179903c1461003b578063f19430f114610045575b600080fd5b610043610075565b005b61005f600480360381019061005a91906101d1565b61014a565b60405161006c919061027d565b60405180910390f35b60003360405161008490610189565b61008e91906102b9565b604051809103906000f0801580156100aa573d6000803e3d6000fd5b5090506000819080600181540180825580915050600190039060005260206000200160009091909190916101000a81548173ffffffffffffffffffffffffffffffffffffffff021916908373ffffffffffffffffffffffffffffffffffffffff1602179055507f3fbcf1c6c8202fe84628d117fcbcb923f84d3831a36f8c451e009d0304b902c73360405161013f91906102b9565b60405180910390a150565b6000818154811061015a57600080fd5b906000526020600020016000915054906101000a900473ffffffffffffffffffffffffffffffffffffffff1681565b61020d806102d583390190565b600080fd5b6000819050919050565b6101ae8161019b565b81146101b957600080fd5b50565b6000813590506101cb816101a5565b92915050565b6000602082840312156101e7576101e6610196565b5b60006101f5848285016101bc565b91505092915050565b600073ffffffffffffffffffffffffffffffffffffffff82169050919050565b6000819050919050565b600061024361023e610239846101fe565b61021e565b6101fe565b9050919050565b600061025582610228565b9050919050565b60006102678261024a565b9050919050565b6102778161025c565b82525050565b6000602082019050610292600083018461026e565b92915050565b60006102a3826101fe565b9050919050565b6102b381610298565b82525050565b60006020820190506102ce60008301846102aa565b9291505056fe608060405234801561001057600080fd5b5060405161020d38038061020d833981810160405281019061003291906100db565b806000806101000a81548173ffffffffffffffffffffffffffffffffffffffff021916908373ffffffffffffffffffffffffffffffffffffffff16021790555050610108565b600080fd5b600073ffffffffffffffffffffffffffffffffffffffff82169050919050565b60006100a88261007d565b9050919050565b6100b88161009d565b81146100c357600080fd5b50565b6000815190506100d5816100af565b92915050565b6000602082840312156100f1576100f0610078565b5b60006100ff848285016100c6565b91505092915050565b60f7806101166000396000f3fe6080604052348015600f57600080fd5b506004361060285760003560e01c8063481c6a7514602d575b600080fd5b60336047565b604051603e919060a8565b60405180910390f35b60008054906101000a900473ffffffffffffffffffffffffffffffffffffffff1681565b600073ffffffffffffffffffffffffffffffffffffffff82169050919050565b6000609482606b565b9050919050565b60a281608b565b82525050565b600060208201905060bb6000830184609b565b9291505056fea2646970667358221220b6ba24b17ebce7c385dec2acd0ea59ab87545317426c194481343ded301ad30b64736f6c634300080f0033a2646970667358221220b7d2f7be28569925ead65ec92963d34f10489d10e6fe73fa730ee0ed7ca5f27e64736f6c634300080f0033",
  "immutableReferences": {},
  "source": "// SPDX-License-Identifier: MIT\npragma solidity ^0.8;\n\ncontract TeslaFactory {\n    Tesla[] public deployedTeslas;\n    event NewTeslaCreated(address owner);\n\n    function createNewTesla() public {\n        Tesla newTesla = new Tesla(msg.sender);\n        deployedTeslas.push(newTesla);\n        emit NewTeslaCreated(msg.sender);\n    }\n\n}\n\ncontract Tesla {\n    address public manager;\n    constructor(address owner) {\n        manager = owner;\n    }\n}",
  "sourcePath": "/Users/mushroom/Desktop/etc/study/node/contracts/Tesla.sol",
  "compiler": {
    "name": "solc",
    "version": "0.8.15+commit.e14f2714.Emscripten.clang"
  },
  "schemaVersion": "3.4.8",
  "updatedAt": "2022-07-08T15:10:26.518Z",
  "networkType": "ethereum",
  "devdoc": {
    "kind": "dev",
    "methods": {},
    "version": 1
  },
  "userdoc": {
    "kind": "user",
    "methods": {},
    "version": 1
  }
}